:020000040800F2
:1000000020930020810200089F2F0008092A000881
:100010009D2F0008B10300083F48000800000000C1
:10002000000000000000000000000000C101000806
:100030000D050008000000001D020008B92F00088F
:100040009B0200089B0200089B0200089B0200081C
:100050009B0200089B0200089B0200089B0200080C
:100060009B0200089B0200089B0200089B020008FC
:100070009B0200089B0200089B0200089B020008EC
:100080009B0200089B0200089B0200089B020008DC
:100090009B0200089B0200089B0200089B020008CC
:1000A0009B0200089B0200089B0200089B020008BC
:1000B0009B0200089B0200089B0200089B020008AC
:1000C0009B0200089B0200089B0200089B0200089C
:1000D0009B0200089B0200089B0200089B0200088C
:1000E0009B0200089B0200089B0200089B0200087C
:1000F0009B0200089B0200089B0200089B0200086C
:100100009B0200089B0200089B0200089B0200085B
:100110009B0200089B020008A93000089B0200080F
:100120009B0200089B0200089B0200089B0200083B
:100130009B0200089B0200089B0200089B0200082B
:100140009B0200089B0200089B0200089B0200081B
:100150009B0200089B0200089B0200089B0200080B
:100160009B0200089B0200089B0200089B020008FB
:100170009B020008A12F00089B020008000000005D
:100180009B0200089B0200089B0200089B020008DB
:100190009B0200089B0200089B0200089B020008CB
:1001A0000D2A00089B020008B9040008DFF80CD0F3
:1001B00000F0ECF800480047DD48000820930020DC
:1001C0002C4B19680868B0E8F04F80F30988BFF33A
:1001D0006F8F4FF0000080F311887047000000001F
:1001E00008480068006880F308884FF0000080F33A
:1001F000148862B661B6BFF34F8FBFF36F8F00DF15
:1002000000BF00BF08ED00E0DFF80C00016841F41A
:1002100070010160704700BF88ED00E0EFF30980D6
:10022000BFF36F8F134B1A681EF0100F08BF20ED3D
:10023000108A20E9F04F106009B44FF0500080F3AD
:100240001188BFF34F8FBFF36F8F05F0EDF84FF0BC
:10025000000080F3118809BC19680868B0E8F04F05
:100260001EF0100F08BFB0EC108A80F30988BFF3AE
:100270006F8F70472C000020EFF30580704700005F
:100280000648804706480047FEE7FEE7FEE7FEE730
:10029000FEE7FEE7FEE7FEE7FEE7FEE78D3000083B
:1002A000AD0100082DE9F05F0546002092469B460F
:1002B00088460646814640241BE02846414647467C
:1002C000224600F053F853465A46C01A914110D3C3
:1002D00011461846224600F03AF82D1A67EB01083D
:1002E0004F4622460120002100F031F817EB0009AB
:1002F0004E41201EA4F10104DFDC484631462A4667
:100300004346BDE8F09F40EA01039B0703D009E0A4
:1003100008C9121F08C0042AFAD203E011F8013BF1
:1003200000F8013B521EF9D27047D2B201E000F84A
:10033000012B491EFBD270470022F6E710B5134689
:100340000A4604461946FFF7F0FF204610BD202A52
:1003500004DB203A00FA02F1002070479140C2F11C
:10036000200320FA03F3194390407047202A04DB4E
:10037000203A21FA02F00021704721FA02F3D0401E
:10038000C2F120029140084319467047064C074DC0
:1003900006E0E06840F0010394E807009847103455
:1003A000AC42F6D3FFF706FF205F0008405F00086D
:1003B000FEE770B50546D0F878030426C46994F8C2
:1003C0004E0003281AD0042820D1217B284603F0B0
:1003D0006CFC01281AD1217B284603F051FCA16A4C
:1003E000814214D0628B824211D2091AA162216A21
:1003F00008442062032084F84E000EE0237B628BC9
:100400002846216A02F09EFF84F84E6070BD0020ED
:1004100084F84E00284603F0F1F8C5F8D46331465D
:10042000D5F8CC03BDE87040002204F05FBB0000AB
:10043000F8B50546D0F878030127C46994F84D0053
:1004400001280ED002281AD1617B284603F02DFC2A
:100450000426012814D0022811D100BF84F84D7061
:1004600020E0228B606A0097637B904200D882B2C2
:100470002846E16902F076FF022084F84D00F8BDBD
:10048000208B616A0022814206D9091A6162E36900
:100490001844E061E2D100E0626284F84D20284611
:1004A00003F0AFF8C5F8D4633146D5F8CC03BDE806
:1004B000F840002204F01ABB014800F015B9000012
:1004C000B400002010B500224FEA020100EB8203C5
:1004D000521CC3F880130F2AF8D300224FF4007384
:1004E0008418521C84F81C119A42F9D3017041708F
:1004F00001228270C0F8BC130276402383714176DA
:1005000080F81C1380F81D23002010BD7047704731
:1005100030B5D1E901231A43D1E903352B431A43FE
:100520004B690C681A438B691A43D1E90735012CD2
:10053000496A046807D01A432A436FF30E040A433A
:10054000224302600AE024F4F8442B4321430B4386
:10055000416803606FF30E010A434260002030BD22
:10056000F0B56FF00F05D1E9003405EB04145B1E04
:1005700023432E018C682F0306EB042423434FEA08
:10058000054C0C8A8E8ACD68097E4FF07F4E07EBB2
:1005900004440CEB06560EEB0161012A0CD0826874
:1005A0003F1107EB05352B432343334302F07042E1
:1005B0000B43134383600FE08768084A17402A0300
:1005C000A2F580523243C5683A43234305F0704593
:1005D0000B432B438260C3600020F0BDFF0F0FFF71
:1005E000A1220274212242740022428282820722C6
:1005F000C28203F02AB810B5040002D0607910B1AD
:1006000006E0012010BD00202071204600F004F813
:1006100001206071002010BD08B5006806498842BD
:1006200008D10648016841F480510160006800F477
:100630008050009008BD0000003002403038024079
:100640007047000070B590F83820012A24D00126A8
:1006500080F83860022280F8392000EB0112148CF7
:10066000D369183243EA04451E4C0A2B16D0092BD5
:1006700014D0137B45EA03630029016813D0CD69C8
:10068000A5431D43CD6103681168196151680A29AA
:100690001BD0092919D01DE0022070BDD36803F0DA
:1006A0007F432B43E8E74D6AA5431D434D62036832
:1006B0001168996151680A2901D009290AD1D168C4
:1006C000026821F07F41916204E0D168026821F064
:1006D0007F41116280F83960002180F838100846A7
:1006E00070BD00000F0003FF2DE9F04704460068CD
:1006F00046680568F1074FF004084FF000074FF017
:10070000010914D0E90512D5016821F48071016056
:10071000E06B40F00100E0632168C1F8089084F8C4
:10072000398084F83870616909B120468847B0067D
:1007300015D5A80413D52068016821F40051016083
:10074000216820208860E06B40F00200E06384F8BC
:10075000398084F83870616909B1204688473007CC
:1007600015D5280513D52068016821F400610160C2
:10077000216808208860E06B40F00400E06384F8A2
:10078000398084F83870616909B12046884770075C
:100790000CD568050AD52068016821F480610160E4
:1007A0002168C1F80880204600F05AF8B00713D538
:1007B000A80511D52068016821F400710160216845
:1007C00002208860E06BE06384F8399084F8387028
:1007D000216909B120468847F00612D5E80410D5F2
:1007E0002068016821F48051016021681020886030
:1007F000E06BE06384F8399084F838702046FFF7A6
:100800001FFFBDE8F08770B5040004D094F83900EC
:10081000002510B106E0012070BD84F83850204654
:1008200000F020F8022084F839002068016862682E
:1008300021F44031114301602068416BA26821F02E
:100840000701114341632068016CE2686FF30D01F9
:1008500011430164E563012084F83900002070BD74
:100860007047000008B500680B49884212D10B4858
:10087000016841F4000101600068002200F40000FA
:10088000009005215A2000F029FFBDE808405A20B9
:1008900000F016BF08BD000000B002403038024032
:1008A00070B5044600F072F90546601C02D0044899
:1008B0000078044400F06AF9401BA042FAD370BDEE
:1008C0001C0000202DE9F04186B014216846FFF796
:1008D00033FD2B48016800294FD14FF00108C0F8C3
:1008E000008028480024016841F00101016000688F
:1008F000022500F0010005904FF63F00CDE900050C
:1009000002AA03260C2782E8D00069461E4800F0A0
:1009100047F802AA694682E8D000CDE900851B4865
:1009200000F03EF848F23310CDE9000502AA69460E
:1009300082E8D000164800F033F84FF68370CDE916
:10094000000502AA694682E8D000124800F028F8A3
:100950004CF20370CDE9000502AA694682E8D00096
:100960000D4800F01DF86020CDE9000502AA694697
:1009700082E8D000094800F013F806B0BDE8F08125
:1009800010000020383802400014024000080240E5
:100990000018024000100240000C02400004024017
:1009A0002DE9F84F00224FF0010803254FF00F0EFC
:1009B0000B6808FA02F42340A3426ED14E68012E60
:1009C00005D0022E03D0112E01D0122E12D186682E
:1009D0004FEA420C05FA0CF7BE43CF6807FA0CF752
:1009E000374387604668A6430C79C4F300149440EB
:1009F00034434460C668570005FA07FC8C6826EA51
:100A00000C06BC403443C4604C68022C01D0122C4C
:100A100013D1D40800EB8404A346D4F820905407E3
:100A20004FEAD46A0EFA0AF629EA06090E6906FAAE
:100A30000AF646EA0906CBF8206004680E7924EA33
:100A40000C0406F00306BE40264306604C68E40032
:100A50006FD53B4C266846F480462660246822F019
:100A6000030604F480440094364C3444A446D4F87D
:100A700008489607360F0EFA06F7BC43324FB842C5
:100A800001D100272EE0314FB84201D1012729E0E2
:100A90002F4FB84202D1022724E04AE02D4FB8423E
:100AA00001D103271EE02C4FB84201D1042719E0E1
:100AB0002A4FB84201D1052714E0294FB84201D18D
:100AC00006270FE0274FB84201D107270AE0264F3B
:100AD000B84201D1082705E0244FB84201D10927C7
:100AE00000E00A27B7402743CCF80878204E346846
:100AF0004F689C43FF0300D51C4334601C4E361DD9
:100B000034684F689C43BF0300D51C433460184EC3
:100B1000083634684F689C43FF0200D51C4334609C
:100B2000134E0C3634684F689C43BF0200D51C43FB
:100B30003460521C102AFFF43BAFBDE8F88F000070
:100B400044380240003001400000024000040240EE
:100B500000080240000C0240001002400014024055
:100B600000180240001C0240002002400024024005
:100B7000003C0140426931EA020200D1090481616E
:100B800070470AB1816170470904FBE7014880683A
:100B9000704700001C000020D0F8C00203F021B80C
:100BA000D0F8C00203F03CB8006803F099BB0068BD
:100BB00003F09ABB01EB810100EBC10090F85C00EF
:100BC000704701EB810100EBC100C06C704710B5AC
:100BD000044690F8B802012809D0012084F8B80230
:100BE000206803F08CFB002084F8B80210BD0220BE
:100BF00010BD2DE9FE430546DDE90B7095F8B842BE
:100C0000DDF828C0012C1CD001EB81044FF0010954
:100C100005EBC40485F8B892002684F83D6084F89A
:100C20003830A4F8400084F8391084F83F7002F09E
:100C30007F0884F83A805FEA026805D584F83B9023
:100C400004E00220BDE8FE8384F83B6084F83CC0E9
:100C5000CDF800C0CDE90170286803F0B1FB85F83C
:100C6000B862EFE7D0F8C00203F05CB82DE9F041BC
:100C700001EB8104DDE907E700EBC404DDF818C0EF
:100C800084F83B20022684F83F30BCF1000F0AD0E4
:100C900084F84260002553B1012B2BD0022B0FD0DA
:100CA000032B13D10CE0032584F84250F2E7BCF18A
:100CB000010F0BD152B9D7B9012284F8512003E0BA
:100CC000AAB194F85020AAB184F84260C4E911E7AF
:100CD00084F85C50E56484F8391084F85D50027C37
:100CE00004F138010068BDE8F04103F0E5BB94F879
:100CF0005120E8E784F84250E8E700002DE9F04190
:100D000004460068064603F0F6FA01286FD1206811
:100D100003F001FD00286AD0206803F0FCFC80028B
:100D200003D521684FF400104861206803F0F3FCFC
:100D3000C00203D521684FF480104861206803F099
:100D4000EAFC400103D521684FF0806048612068CB
:100D500003F0E1FC800702D5216802204861206889
:100D600003F0D9FC800010D5D6F8400420F02E0006
:100D7000C6F840042046FFF713FF0121206803F066
:100D8000AFFC21684FF000504861206803F0C3FCBD
:100D9000C00102D5204601F0A3FD206803F0BBFC92
:100DA000000705D5204600F0CAF8216808204861F0
:100DB000206803F0B0FC800124D5206803F078FBA4
:100DC000074600254FF0010815E000BF05F00F01B0
:100DD00008FA01F038420DD006EB4510D0F80005B6
:100DE000E9B20004204603D501F042FB02E01CE01A
:100DF00001F054FC6D1CA068A842E7D821684FF0B0
:100E000000704861206803F086FCC043C0060CD423
:100E10002068816921F010018161204601F0BCFD4C
:100E20002068816941F010018161BDE8F08170B5F1
:100E30008AB0040005D094F8B9022568002618B1DC
:100E400007E001200AB070BD84F8B862204600F0C7
:100E500027F8032084F8B902E86BC00500D42661A6
:100E6000206803F0E7F904F1100128220D466846D6
:100E7000FFF749FA94E80F0003F086F90121206892
:100E800003F074FC282229466846FFF73CFA94E8F0
:100E90000F0003F0B9FB012084F8B9020020D1E76C
:100EA00070B586B0044614216846FFF745FA1B4921
:100EB0002068884230D11A4C0025206840F002009A
:100EC00020602068174E00F0020005904FF450405B
:100ED00000900220CDE901050C20CDE903506946C0
:100EE0003046FFF75DFD4FF40050CDE9000569463F
:100EF00030460295FFF754FD206840F00050206016
:100F00002068002200F00050059005214D2000F0DF
:100F1000E5FB4D2000F0D4FB06B070BD000004409E
:100F20003038024000040240D0F8C00202F013BF83
:100F3000D0F8C00202F013BF006803F0FEBBD0F887
:100F4000C00202F0B6BE10B5044690F8B8020128FF
:100F50000DD0012084F8B802206803F099F901212E
:100F6000206803F07FF9002084F8B80210BD022049
:100F700010BD10B5044690F8B802012809D0012030
:100F800084F8B802206803F009FC002084F8B80255
:100F900010BD022010BD90F83D20202A01D0022073
:100FA0007047242280F83D200268136823F0010373
:100FB00013600268536A23F0100353620268536A95
:100FC0000B43536201680A6842F001020A60202163
:100FD00080F83D100020704790F83D20202A01D075
:100FE00002207047242280F83D200268136823F015
:100FF0000103136003685A6A22F00F020A4391B298
:10100000596201680A6842F001020A60202180F8F2
:101010003D1000207047000070B5040025D094F802
:101020003D00002520B984F83C50204600F0B8F877
:10103000242084F83D002068016821F0010101604E
:101040002068016841F4004101602068016821F4D2
:101050000041016000F058FD4D4A6168914201D89D
:101060004C4900E04C49884201D2012070BD4B49F7
:101070002368B0FBF1F15E6826F03F060E435E6028
:101080006368934206D94FF4967359434FF47A73C9
:10109000B1FBF3F12368491C1E6A26F03F06314379
:1010A00019626168914210D84900401EB0FBF1F20C
:1010B000521CC2F30B02042A01D2042022E0B0FB2E
:1010C000F1F0401CC0F30B001CE0A268F2B301EB8E
:1010D000C10303EB0116431EB3FBF6F35B1C43F4A1
:1010E00080431B0549D092B301EBC10202EB011111
:1010F000401EB0FBF1F0401CC0F30B0040F48040F8
:1011000040F400402168CA694CF6FF739A431043CB
:10111000C861D4E9071001432068026822F0C002C8
:1011200011430160D4E9030101432068826848F259
:10113000FF339A4311438160D4E9050108432168D4
:10114000CA6822F0FF021043C86001E00EE016E01A
:101150002068016841F0010101602564202084F8C5
:101160003D00256384F83E50002070BD01EB410630
:10117000431EB3FBF6F35B1CB3E70120C2E701EBB0
:101180004101401EB0FBF1F0401CC0F30B00B7E77B
:10119000A086010080841E0000093D0040420F002F
:1011A000F0B587B0044614216846FFF7C5F81C491E
:1011B0002068884231D11B480024016841F00401B5
:1011C0000160016801F004010591016841F001012D
:1011D00001600068122500F0010005904FF40070D6
:1011E00001268DE861000427CDE9034769460E48D2
:1011F000FFF7D6FB30028DE86100CDE90347694671
:101200000A48FFF7CDFB07481030016841F40001A0
:101210000160006800F40000059007B0F0BD000018
:10122000005C0040303802400008024000000240EC
:101230000248816802781144816070471C000020D8
:101240000B4810B5016841F400710160016841F478
:1012500080610160016841F480710160032000F049
:101260005DFA002000F006F800F00EFA002010BD34
:10127000003C024010B5014688B00022362000F044
:101280002DFA362000F01CFA13480024016841F0C2
:1012900010010160006805A900F010000690684682
:1012A00000F012FC00F030FC0C494000B0FBF1F102
:1012B0000C480B4A491E026040F2E732C0E90324A1
:1012C000C0E9011400F000FF10B1012008B010BD0A
:1012D000044800F029FFF9E74038024040420F007F
:1012E00000100040F00B00202DE9F041044690F87A
:1012F000A00016460F4601281DD0012584F8A050F5
:10130000022084F8A10006EB860000EBC60004EB87
:10131000800034223830FEF7F6FF32463946204648
:1013200001F07AFB2068456284F8A150002084F81F
:10133000A000BDE8F0810220FBE770472DE9F041F5
:1013400004460068856B466B69074FF004084FF050
:10135000000715D5710713D5416B21F004014163D6
:101360002168C1F83C80D4F8A41041F00101C4F810
:10137000A41084F8A18084F8A0702046FFF7DDFF58
:10138000A80716D5B00714D52068416B21F00201DB
:10139000416321680220C863D4F8A40040F0020031
:1013A000C4F8A40084F8A18084F8A0702046FFF758
:1013B000C4FF05EA0600C0074FF001080ED0206800
:1013C000416B21F0010141632168C1F83C8084F840
:1013D000A18084F8A070204600F090F8280710D56E
:1013E00030070ED52068416B21F008014163216868
:1013F0000820C86384F8A18084F8A070204600F01B
:1014000041F9BDE8F081000070B5040004D094F803
:10141000A100002510B106E0012070BD84F8A050A5
:10142000204600F06DF8022084F8A1002068816950
:1014300021F070418161D4E901010843D4E903122C
:101440001143084321688A691043886121688A68CA
:10145000294802408A60A18A0A0421688B68A6692B
:10146000334313438B602168CA680240CA60A18B72
:101470000B042168CA68266A32431A43CA6021688D
:101480000A6902400A61A18C22680B041169A66AEC
:1014900031431943116121684A6902404A61A08DB4
:1014A000010420684269236B1A430A43426194F89D
:1014B00035002168020294F83600CB6A03F07F43BE
:1014C000CB622168CB6A94F8346042EA004033432F
:1014D0000343CB622068416B41F006014163206801
:1014E000816941F001018161C4F8A450012084F8B0
:1014F000A100002070BD000000F800F0704700005F
:101500002DE9F04186B0044614216846FEF714FF29
:101510005449206888427CD153480024016841F036
:1015200080610160006800F0806005904E481438CA
:10153000016841F020010160016801F0200105917E
:10154000016841F001010160016801F001010591AC
:10155000016841F002010160016801F0020105919A
:10156000016841F040010160016801F0400105910E
:10157000016841F004010160016801F00401059176
:10158000016841F0080101600068022500F00800D0
:1015900005904FF480600090CDE901540E26CDE90E
:1015A000034669463148FFF7FBF941F658000090C1
:1015B000CDE90154CDE9034669462D48FFF7F0F91E
:1015C00003200090CDE901540927DFF8A880CDE978
:1015D000034769464046FFF7E3F94FF47060009017
:1015E000CDE90154CDE9034669464046FFF7D8F9F5
:1015F0004FF40C600090CDE90154DFF87C80CDE918
:10160000034669464046FFF7CBF94FF498600090D7
:1016100000E024E0CDE90154CDE9034669461748CE
:10162000FFF7BEF948200090CDE90154CDE903460B
:1016300069461348FFF7B4F94FF4A0500090CDE984
:101640000154CDE9034769464046FFF7A9F9002256
:101650000521582000F042F8582000F031F806B07B
:10166000BDE8F081006801404438024000140240A7
:10167000000002400004024000180240000802403E
:10168000000C0240704700000C4882B0016841F431
:1016900080410160006800F4804000900748001F0E
:1016A000016841F0805101600068002200F0805024
:1016B00000900F21901E02B000F010B84438024094
:1016C000002809DB00F01F02012191404009800041
:1016D00000F1E020C0F8001170470000F0B40E4B9C
:1016E0001B680C46C3F30223C3F10705042D00D980
:1016F0000425191D072901D2002300E0DB1E012665
:1017000006FA05F1491E214099409E40761E16407A
:101710003143F0BC03F094B80CED00E0064900F052
:10172000070208684FF6FF03184040EA0220034A08
:1017300010430860704700000CED00E00000FA055F
:101740002DE9F84F04460068DFF824A2894F8A4D3E
:10175000C1074FF001084FF0000603D1810701D403
:10176000400648D5CAF86860FFF710FA814605E0E0
:10177000FFF70CFAA0EB090002287DD828680001C9
:10178000F6D42078C1077D4805D06168227A8901A6
:1017900041EA027101602178890711D50168626808
:1017A000237B9201C1F3027142EA036242EA0171B2
:1017B00001603968E26921F01F01521E114339604E
:1017C0002178490608D56168227B890141EA0261D6
:1017D000227A41EA02710160CAF86880FFF7D6F9FF
:1017E000814605E0FFF7D2F9A0EB0900022843D8B3
:1017F00028680001F6D52068410701D400074ED5BE
:10180000CAF87060FFF7C2F9814605E0FFF7BEF93C
:10181000A0EB090002282FD82868C0438000F5D526
:1018200020784107564814D501682269237D92012A
:10183000C1F3027142EA036242EA01710160396850
:10184000226A6FF0FF0321F4F85103EB02221143E7
:1018500039602178090712D501682269C1F3036153
:10186000920142EA0161227E41EA02710160386818
:10187000616A20F4403000E051E008433860CAF863
:101880007080FFF783F9074605E000BFFFF77EF998
:10189000C01B022843D82868C0438000F6D42078B3
:1018A000800653D534484030016841F080510160D2
:1018B0000068344D00F080500090286840F480703B
:1018C0002860FFF763F9074605E000BFFFF75EF900
:1018D000C01B022823D82868C005F7D5274D143D22
:1018E000286810F4407020D0218D01F440718142AD
:1018F0001BD0286820F440712348C0F8008006609F
:1019000029602868C00710D0FFF740F9064641F269
:10191000883707E0FFF73AF9801BB84202D9032065
:10192000BDE8F88F28688007F4D5A16A1248C1F392
:1019300001220830032A13D0016821F4F811016054
:101940002868218DC1F30B01084328602078C00668
:1019500004D50E4994F82C00C1F8E0010020DFE71F
:1019600002680B4B22F4F81219400A430260E7E7C1
:10197000000047428C380240003802408438024060
:101980008838024000700040400E47420010474235
:10199000FFFCFF0F2DE9F0470E46050065D0DFF88C
:1019A0001481D8F80000F7B200F00F00B04207D25F
:1019B00088F80070D8F8000000F00F00B04254D151
:1019C00028683D4C810712D5400703D5206840F4B4
:1019D000E05020602878000703D5206840F460407C
:1019E00020602068A96820F0F00008432060287873
:1019F000C0072DD0304968680839012812D0022864
:101A000013D0032811D00968890700292DDA21682D
:101A100021F0030101432160FFF7B8F8814641F24C
:101A2000883A0EE009688903EFE709688901ECE765
:101A3000FFF7ACF8A0EB0901514502D90320BDE83E
:101A4000F0872068696800F00C00B0EB810FEFD1DF
:101A5000D8F80010404601F00F01B14207D90770D5
:101A6000006800F00F00B04201D00120E7E72878BD
:101A7000400705D52068E96820F4E050084320605D
:101A80002878000706D52068296920F4604040EADC
:101A9000C100206000F058F82168084AC1F3031122
:101AA000515CC8400649086006480068FFF7E2FB41
:101AB0000020C4E7003C024008380240C05E000835
:101AC00028000020200000200F2202600C4A13682A
:101AD00003F003034360136803F0F00383601368AB
:101AE00003F4E053C36012684FF4E05303EAD202F8
:101AF00002610448006800F00F00086070470000B1
:101B000008380240003C0240044805490068096862
:101B1000044AC1F38221515CC8407047280000206C
:101B200008380240D05E000804480549006809688A
:101B3000044AC1F34231515CC8407047280000207C
:101B400008380240D05E0008154810B5006810F053
:101B50000C02144813D04110042A0FD0082A0ED1C9
:101B60000F4C241F2268236802F03F025B0207D556
:101B70002068C0F38810A0FB010106E0084610BDF4
:101B80002168C1F38811A1FB00010023FEF78AFB45
:101B90002168C1F30141491C4900B0FBF1F010BDBF
:101BA000083802400024F4002DE9F84F040076D0F4
:101BB0002078DFF838A3CE4DC00749D0DAF80010FE
:101BC0005046C1F38101012908D00068C0F38100AB
:101BD00002280AD1281D0068400206D52868800323
:101BE00036D560680028E2D032E06068B0F5803F0A
:101BF00010D0B0F5A02F286810D020F480302860D5
:101C0000286820F4802028606068A0B1FEF7BEFF3D
:101C100006460CE0286840F48030F4E740F4802069
:101C20002860F7E7FEF7B2FF801B642873D82868A6
:101C30008003F7D50CE0FEF7A9FF064605E000BFDC
:101C4000FEF7A4FF801B6428F0D828688003F7D42F
:101C50002078DFF8A08280074FF000093ED5DAF83F
:101C60000010504611F00C0F09D00068C0F381003D
:101C700002280BD19D48001F0068400206D4286846
:101C8000800715D5E068012809D111E0E068B8B1F6
:101C90000120C8F80000FEF779FF064605E020E1C4
:101CA000FEF774FF801B0228C0D828688007F7D58C
:101CB0002868216920F0F80040EAC10028600DE0A2
:101CC000C8F80090FEF762FF064604E0FEF75EFFEC
:101CD000801B02281FD828688007F7D420780007C7
:101CE00022D5824E844861696C3671B10121016050
:101CF000FEF74CFF074604E0FEF748FFC01B022832
:101D000009D830688007F7D50EE0C0F80090FEF7DC
:101D10003DFF074605E082E0FEF738FFC01B0228C2
:101D20007DD830688007F7D42078400768D5DFF881
:101D3000BCB100270BF1380BDBF80000C0000BD45E
:101D4000DBF8001041F08051CBF80010DBF8000008
:101D5000012700F080500090684E3068C00510D414
:101D6000306840F480703060FEF710FF009005E0AE
:101D7000FEF70CFF0099401A022850D83068C005C1
:101D8000F6D55A4EA068683601280FD0052830686D
:101D900010D020F001003060306820F00400306086
:101DA000A068B8B1FEF7F2FE00900FE0306840F096
:101DB0000100F4E740F004003060F7E7FEF7E6FECC
:101DC0000099411A41F28830814266D83068800714
:101DD000F4D50EE0FEF7DAFE009007E0FEF7D6FE3F
:101DE0000099411A41F28830814256D83068800704
:101DF000F4D42FB1DBF8001021F08051CBF80010A3
:101E0000A069D0B3DAF800205146C2F38102022A59
:101E10004AD00228484607D0C8F8600000E03CE0FD
:101E2000FEF7B4FE04463BE04746C8F86000FEF704
:101E3000ADFE064605E000BFFEF7A8FE801B0228A7
:101E40002BD828688001F7D4D4E907010843A16A98
:101E50002B4A490802EB0141626A41EA82110843B8
:101E600094F82C1040EA01612048001F0160012015
:101E70003866FEF78BFE044605E034E0FEF786FE8A
:101E8000001B022809D828688001F7D52BE000BF85
:101E9000FEF77CFE001B022802D90320BDE8F88F64
:101EA00028688001F4D41EE00128F7D00868E269B0
:101EB00000F48001914214D1226A00F03F01914266
:101EC0000FD147F6C071626A0140914209D1A26AFE
:101ED00000F44031914204D1E16A00F07060884220
:101EE00001D00120DAE70020D8E7000008380240DE
:101EF0000038024000004742800E47420070004018
:101F00000000FFFF70B50D46040003D094F82C00CC
:101F100010B107E0012070BD002084F82D0020469C
:101F200000F011F8022084F82C00211D2068FEF733
:101F3000EFFAD4E900022946FEF712FB012084F8EB
:101F40002C00002070BDFEF7BDBC70B5040005D0AC
:101F50000025A56294F8510010B106E0012070BD83
:101F600084F85050204600F031F8022084F85100E7
:101F70002068016821F040010160D4E901010843B3
:101F8000D4E903121143084361690843218B01F42A
:101F900000710843E1690843216A0843A16A0843C4
:101FA00021680860A069042101EA1040616A0843C1
:101FB000216848602068C16921F40061C1616565DC
:101FC000012084F85100002070BD000010B586B0DB
:101FD000044614216846FEF7AFF913492068884289
:101FE00020D112480021026842F480120260006889
:101FF00000F4801005900D481438026842F0200269
:102000000260006800F0200005904FF460700090BE
:102010000220CDE901010520CDE9031069460448FD
:10202000FEF7BEFC06B010BD00500140443802402F
:10203000001402407047704770B590F83C20012AA8
:1020400032D0012480F83C40022280F83D20036811
:102050005A689D6822F070060A6832435A60134B32
:1020600002689A4214D0B2F1804F11D0104B9A42BC
:102070000ED0104B9A420BD00F4B9A4208D00F4B08
:102080009A4205D00E4B9A4202D00E4B9A4204D18E
:10209000496825F080031943916080F83D40002194
:1020A00080F83C10084670BD022070BD0000014061
:1020B0000004004000080040000C00400004014003
:1020C000004001400018004010B5040003D094F80F
:1020D0003D0010B107E0012010BD002084F83C0055
:1020E000204600F00DF8022084F83D00211D2068F4
:1020F00000F0E0FF012084F83D00002010BD00004A
:1021000008B500680649884208D10648016841F0D0
:1021100001010160006800F00100009008BD0000AE
:1021200000000140443802400168CA6842F00102E0
:10213000CA600068816801F00701062903D00168C0
:1021400041F0010101600020704770B5044690F82D
:102150003C00012817D0012584F83C50022084F867
:102160003D002068826822F0770222F47F4282607C
:102170000868502830D00DDC20284DD005DC98B3FD
:1021800010283BD148E0022070BD302844D04028C0
:1021900034D139E0602828D0702806D0B0F5805FAF
:1021A0002CD0B0F5005F29D10AE0CB68D1E901213C
:1021B000206800F0E3FF2068816841F0770109E0C2
:1021C000CB68D1E90121206800F0D8FF2068816840
:1021D00041F48041816011E0CA684968206800F0DC
:1021E000DFFF5021206807E016E0CA6849682068D0
:1021F00000F0E7FF6021206800F0CAFF84F83D503E
:10220000002084F83C0070BDCA684968206800F06E
:10221000C7FF40212068EFE7226801461046EBE740
:10222000704770B50446006801694FF00005C94366
:10223000890715D4C168C943890711D4E91E016112
:1022400001202077206880698007204602D0FFF7B0
:10225000E7FF04E000F098F8204600F096F82577B4
:1022600020680169C943490717D4C168C9434907B0
:1022700013D46FF004010161022020772068806987
:1022800010F4407F204602D0FFF7CAFF04E000F0C0
:102290007BF8204600F079F8257720680169C9436A
:1022A000090716D4C168C943090712D46FF00801A1
:1022B0000161042020772068C0698007204602D091
:1022C000FFF7AEFF04E000F05FF8204600F05DF895
:1022D000257720680169C943C90617D4C168C94375
:1022E000C90613D46FF0100101610820207720681F
:1022F000C06910F4407F204602D0FFF791FF04E050
:1023000000F042F8204600F040F825772068016987
:10231000C943C90708D1C168C943C90704D1891E87
:102320000161204600F032F820680169C9430906BE
:1023300009D4C168C943090605D46FF08001016161
:102340002046FFF777FE20680169C943490609D492
:10235000C168C943490605D46FF0400101612046B8
:1023600000F01EF820680169C94389060BD4C168D2
:10237000C943890607D46FF0200101612046BDE8FA
:102380007040FFF758BE70BD704770470068034942
:10239000884201D1FEF74CBF70470000001000409A
:1023A000704770B5040004D094F83900002510B1CE
:1023B00006E0012070BD84F83850204600F022F875
:1023C000242084F839002068C16821F40051C160DC
:1023D000204600F009FF2068016921F49041016165
:1023E0002068416921F02A0141612068C16841F4F7
:1023F0000051C160E563202084F8390084F83A0078
:10240000002070BD10B586B0044614216846FDF763
:1024100093FF14492068884221D11348016841F094
:1024200010010160006800F0100005900E4814389B
:10243000016841F0010101600068694600F0010097
:1024400005904FF4C060009002200190012002909E
:1024500003200390072004900448FEF7A1FA06B079
:1024600010BD00000010014044380240000002404E
:102470002DE9F05F074600680E4600EB4114D4F8E2
:1024800008054FF0040B420701EB86004FF0050AE8
:102490004FF0100807EBC00508D5C4F808B5D4F80C
:1024A0000C0540F00200C4F80C0530E0D4F8080533
:1024B000800601D5202028E0D4F808054FF008094F
:1024C00000070FD5D4F80C0540F00200C4F80C0545
:1024D00085F85DA0C4F80885C4F80895386801F04F
:1024E0000EFF14E0D4F80805400510D5D4F80C050B
:1024F00040F00200C4F80C05386801F000FFC4F891
:10250000088585F85D904FF48060C4F80805D4F81C
:10251000080580050ED5D4F80C0540F00200C4F87B
:102520000C05314604F5A164386801F0E8FE4FF46B
:10253000007090E0D4F808054FF00001C0074FF09C
:10254000010237D0386930B1A86CD4F81035C3F324
:102550001203C01AE86485F85D20A965C4F808254F
:1025600095F83F0020B1022802D003280FD01AE0CE
:10257000D4F80C0540F00200C4F80C05314604F50F
:10258000A164386801F0BBFEC4F800800BE0D4F809
:10259000000540F00050C4F8000585F85C20314685
:1025A0003846FEF75FFB15F8500F80F001002870E9
:1025B000BDE8F09FD4F80805800735D5D4F80C05A0
:1025C00020F00200C4F80C0595F85D0002230128F4
:1025D00008D0052809D006280AD0082808D00328E2
:1025E0001FD015E085F85C2012E085F85CA00FE0B4
:1025F000A86D401CA865032813D9A96585F85CB0AF
:10260000D4F8000520F0804040F00040C4F80005F8
:10261000C4F8083595F85C2031463846FEF722FBB1
:10262000C6E785F85C30EBE7D4F80805000614D55A
:10263000D4F80C0540F00200C4F80C05A86D314632
:10264000401CA865062085F85D0004F5A164386883
:1026500001F055FE80202060AAE7D4F80805C006E6
:10266000A6D595F83F00032803D020B1022802D058
:1026700011E0A96505E0A965386960B9032085F80E
:102680005D00D4F80C0540F00200C4F80C0531469A
:10269000386801F034FEC4F8088589E72DE9F04771
:1026A000026802EB4114D4F808254FF004035207E6
:1026B00009D5C4F80835D4F80C0540F00200C4F878
:1026C0000C05BDE8F087D4F8082501EB81059606D6
:1026D0004FF0000200EBC5054FF0020C15D520238A
:1026E000C4F8083595F83D30012BEAD185F83D2036
:1026F00085F85CC0D4F80C2542F00202C4F80C2521
:102700000068BDE8F04701F0FABDD4F80865770627
:102710004FF0010611D585F85D3085F83D60AA655A
:10272000D4F80C2542F00202C4F80C25006804F528
:10273000A16401F0E4FD402010E0D4F80875BF0565
:102740000ED5D4F80C2542F00202C4F80C2500681E
:1027500004F5A16401F0D3FD4FF400702060B0E7F0
:10276000D4F80875FF070FD0AA65D4F80C2542F0FD
:102770000202C4F80C25006804F5A16401F0BFFD55
:10278000266085F85D609CE7D4F808754FF0050970
:102790005FEA07784FF008070DD5C4F80875D4F83C
:1027A0000C2542F00202C4F80C25006801F0A7FDD8
:1027B00085F85D9085E7D4F808854FF0100A5FEA48
:1027C000C86818D5AA65032285F85D2095F83D20D4
:1027D00022B995F83C200AB985F83D60D4F80C255B
:1027E00042F00202C4F80C25006804F5A16401F06F
:1027F00086FD5046B2E7D4F808855FEA08680FD531
:10280000D4F80C2542F00202C4F80C25006804F547
:10281000A16401F074FD062085F85D0080209DE72D
:10282000D4F808855FEA485812D5D4F80C2542F050
:102830000202C4F80C25006804F5A16401F05FFDF4
:10284000C4F800A04FF48060206085F85D7038E720
:10285000D4F80875BF0796D5D4F80C7527F0020791
:10286000C4F80C7595F85D70012F0AD0032F17D0AE
:10287000042F15D0052F16D0062F17D0082F15D0EE
:1028800027E085F85C6095F83F20022A01D0032AF2
:102890001FD195F8512082F0010285F8512018E0EF
:1028A00085F85CC015E085F85C9012E0AE6D761C92
:1028B000AE65032E03D9AA6585F85C3001E085F882
:1028C0005CC0D4F8002522F0804242F00042C4F8F7
:1028D0000025C4F808C595F85C20FEF7C3F9F0E6BA
:1028E0007CB504680546D4F840040190D4F840044F
:1028F00020F02E000090019880070DD50198C007A8
:1029000006D0A06920F00051A1612846FEF744F9E5
:10291000009840F0020000900198000732D500981E
:1029200040F008000090019840071DD5A8690228D2
:1029300003D0E86801280CD00FE00198C0F34140B3
:102940000228286803D0012101F0CAFE05E0022117
:10295000FAE74EF66020C4F804042846FEF7E8FAC9
:102960002846FEF719F90DE02846FEF7DDFAD4F8FF
:10297000400420F02E00C4F840042868816941F02A
:102980000051816101988006009802D540F0200036
:102990000090C4F840047CBD2DE9F0410246006877
:1029A0000646016AC1F3434301F00F07C1F30A145D
:1029B000022B25D1002C23D007EB870102EBC105A8
:1029C000696C00291CD0224601F0A9FE686C2044E5
:1029D0006864E86C2044E86406EB4710D0F81015F2
:1029E000084A11420CD0D0F8001521F0804141F086
:1029F0000041C0F8001515F8500F80F00100287054
:102A0000BDE8F0810000F81FFEE700000148FEF776
:102A100095BC000048010020F0B503688C88DD6893
:102A2000C5F30B452C442504882404EBC2141E591D
:102A300006F470461E5103680F68DE68C6F30B4645
:102A4000761C3E442E431E5104688B89E568C5F30D
:102A50000A052B441D048C2303EBC213E65806F42D
:102A60007046E65004688F68E668C6F30A06761C6E
:102A70003E442E43E6509423046803EBC213E5580A
:102A800025F00705E55005680C69EC5091F83130E8
:102A90000C7E1F0226069C24056804EBC21491F8E4
:102AA000323055F804C04FF0000C45F804C091F8DE
:102AB000305046EA03433D431D4303681D519823AC
:102AC000046803EBC213E55825F0FF05E5500568DF
:102AD0004C69EC50A023046803EBC213E55840F2A4
:102AE0000776B543E550D1E907452C430568EC501E
:102AF000AC23046803EBC213E55844F803C005682F
:102B00004C6AEC500B698BB3012B32D0042B32D0C2
:102B1000022B30D0032B2ED0072B2CD00123B02436
:102B2000056804EBC2142E5906F0E0262E51D1E9B7
:102B30000065AD1B0E8D5D435E43ED1C45EA06430B
:102B400005682B51B423046803EBC213E5586FF3F7
:102B50000A05E5500468C96AE1500068842101EB68
:102B6000C211425842F001024250F0BDFFE7042377
:102B7000D5E70323D3E70223D1E7000020B10022E9
:102B800010210248FDF7FDBF0122F9E700080240CD
:102B900000B587B01C216846FDF7CEFB13481249EB
:102BA00000F1080C01600121416000210422102382
:102BB0008CE80E00402343614FF4C073C0E9063136
:102BC0005302C0E90831D1028162022007218DE859
:102BD000070003910321CDE90410069069460348DC
:102BE000FFF790F907B000BD400100A0C802002027
:102BF0002DE9F04F87B014216846FDF79DFB724820
:102C00000024016841F010010160016801F0100129
:102C10000591016841F004010160016801F00401BF
:102C20000591016841F020010160016801F0200177
:102C30000591016841F080010160016801F08001A7
:102C40000591016841F001010160016801F0010195
:102C50000591016841F002010160016801F0020183
:102C60000591016841F040010160016801F04001F7
:102C70000591016841F0080101600068DFF84CB17E
:102C800000F008000590002216215846FDF779FF54
:102C9000002280214E48FDF774FF4FF44059002276
:102CA00049464C48FDF76DFF4FF4C04A002251469B
:102CB0004948FDF766FF7C200325CDE900056946FC
:102CC00002944648FDF76CFE43F60810CDE9000576
:102CD000694602945846FDF763FE4020CDE90005A1
:102CE000694602943E48FDF75BFE162000900126DF
:102CF000CDE90164694658460394FDF751FE394F0A
:102D000048F20700CDE90007694602943048FDF714
:102D100047FE4FF02008CDF80080CDE90154694608
:102D20002B48FDF73DFE80200090CDE90164694607
:102D300027480394FDF734FECDF80080CDE90174F7
:102D400069465846FDF72CFE0420CDE90004264FC5
:102D5000694638460294FDF723FEF002CDE90004EF
:102D600069461C480294FDF71BFECDF80090CDE9A2
:102D70000164694617480394FDF712FE4FF403708F
:102D8000CDE90005694602941348FDF709FEB42019
:102D9000CDE90005694602940E48FDF701FECDF825
:102DA00000A0CDE9016469460B480394FDF7F8FDE6
:102DB0009820CDE90005694602943846FDF7F0FDFC
:102DC00007B0BDE8F08F0000303802400008024034
:102DD00000000240000C02400018024000100240B7
:102DE0000014024000001210000402400E4810B50A
:102DF0000C4901600D49416000214FF4804281601F
:102E0000C0E9031241618161C1610162FEF704F909
:102E100000210548FEF7BFF8BDE810400021024838
:102E2000FEF7DAB8005C0040F4000020A086010044
:102E300010B58EB034216846FDF77EFA2448234948
:102E40000024C0E9001484600921C460C0E9044181
:102E5000012181611D21C1610321016240F20D1137
:102E6000416240F24311816240F21711C16240F2A7
:102E70004711016380F8344080F8354080F83640CF
:102E8000FEF7C2FAF020CDE900404FF4A071022213
:102E90000294CDE90312FF22CDE905244FF4C0626C
:102EA0000792072208924FF05042CDE90A018DF8AF
:102EB000304009928DF831408DF832400022694649
:102EC0000348FEF711FA0EB010BD00000068014083
:102ED000480100200C480B494FF4007201604FF488
:102EE0008271416000218160C1600161C0E9051209
:102EF0001822C0E90721416281620A21C162FFF7FD
:102F000024B8000000500140F001002010B586B048
:102F100000241148009401940294039404940D49F0
:102F20000594C0E900148460C46004614461846154
:102F3000FFF7CAF84FF48050009069460648FFF743
:102F400004F9049404A904480594FFF775F806B041
:102F500010BD0000000001404802002010B5002212
:102F60000B490C4800F000FE08B1FDF7D0FA0A4901
:102F7000084801F0ABF808B1FDF7C9FA054801F0BF
:102F8000E8F8002803D0BDE81040FDF7C0BA10BD36
:102F900069410008540500208C000020FEE77047BE
:102FA0000148FDF7ABBE00002C090020FFF7D6FF5B
:102FB000012001F031FDFBE710B5502080F31188AE
:102FC000BFF34F8FBFF36F8F02F020FE18B104499B
:102FD0004FF080500860002080F3118810BD000081
:102FE00004ED00E030B59FB030216846FDF7A4F94C
:102FF000142118A8FDF7A0F930210CA8FDF79CF9C1
:1030000020480025016841F080510160006800F00F
:1030100080501D901C48016821F4404141F48041DA
:1030200001600068022400F440401D9001200390DC
:1030300010200490009406940A20CDE907505A20ED
:10304000CDE9090403200B906846FEF7ADFD18A9F1
:103050000F2081E831004FF4C0501B904FF4A05076
:103060001C90022118A8FEF795FC08200C903F2028
:10307000109005201290E00315900CA8FEF760FB5D
:103080001FB030BD40380240007000400548016864
:1030900041F47001016003494FF00060803908601D
:1030A0007047000088ED00E00148FFF7BAB8000063
:1030B000F00B0020F0B50268254C264D264E274F18
:1030C000274B4FF0804CA04209D0604507D0A84262
:1030D00005D0B04203D0B84201D0984204D122F0CA
:1030E000700E4A6842EA0E02A0421BD0604519D019
:1030F000A84217D0B04215D0B84213D0984211D090
:10310000184DA8420ED0184DA8420BD0174DA8421A
:1031100008D0174DA84205D0164DA84202D0164D32
:10312000A84203D122F44075CA682A434D6922F0AF
:1031300080022A4302608A68C2620A688262A042F0
:1031400001D0984201D10969016301214161F0BDBB
:10315000000001400004004000080040000C004056
:10316000000401400040014000440140004801408B
:1031700000180040001C00400020004010B584688A
:1031800042EA032224F47F440A432243826010BDB2
:10319000826822F070020A4342F0070181607047A2
:1031A00010B5036A046A24F001040462846924F0FF
:1031B000F00444EA021423F00A020A438461026222
:1031C00010BD10B5036A23F0100303628369046A1B
:1031D00023F4704343EA023224F0A00343EA0111CE
:1031E0008261016210BD00002DE9F04104460068D3
:1031F0000169E26821F44051114301612169A0682D
:10320000E26908436169114308432168CA6849F2C9
:103210000C639A430243CA6020684169A26921F4A1
:10322000407111434161E069192764253226B0F5E8
:10323000004F354A354920684FF0000806D08842D3
:1032400001D0904236D1FEF76FFC35E0884201D0C4
:10325000904202D1FEF768FC01E0FEF755FC616880
:103260004A18A0FB070148EB0803FDF71BF80146CD
:10327000B0FBF5F00201B1FBF5F06FF01803584315
:1032800001EB800006EBC000B0FBF5F000F0F800A9
:1032900002EB4002B1FBF5F0584301EB800006EB76
:1032A000C000B0FBF5F000F0070021681044886012
:1032B000BDE8F081FEF728FC61688B0F8A00A0FB57
:1032C0000701FCF7EFFF0146B0FBF5F06FF01802C5
:1032D000504301EB800006EB0010B0FBF5F000F06E
:1032E000F002B1FBF5F002EB0012B1FBF5F06FF06C
:1032F0001803584301EB800006EB0010B0FBF5F01B
:1033000000F00F00D1E70000001401400010014060
:1033100010B500224FF6FF7300EB8204B4F880432F
:10332000240409D49A4205D000EB820041F4004104
:10333000C0F88013D0B210BD521CD2B20B2AEBD30E
:103340001A46F7E77FB51C46012501AE002300951C
:1033500086E80E0002232A46214600F032FD04B022
:10336000002070BD7FB51D4690F81D33089C03B149
:1033700000240123CDE90031CDE9022402230022FB
:10338000294600F01EFD04B0002070BD70B5044653
:10339000D0F87803C16920464031FDF721F90500D6
:1033A00004D1D4F8C823022120469047284670BD96
:1033B00070B50546D0F878030026C469217839B184
:1033C000284600F01FF92178284600F0AFF9267052
:1033D000217B39B1284600F015F9217B284600F001
:1033E000A5F92673617B39B1284600F00BF9617BA2
:1033F000284600F09BF96673D5F87803C06920B1C0
:1034000001F03EFAD5F87803C661002070BDFEB524
:103410000227054601233A46394600F065F906467B
:10342000FF287ED00146284600F05EFE502001F0C5
:10343000BDFAD5F878130446C86106EB860000EBA8
:10344000C60005EB400090F84A130A0603D56170E8
:10345000B0F84C03608161782846FFF759FF20706F
:10346000014695F81D03638903228DE80D0095F848
:103470001C336278284600F0B5FC217800222846EB
:1034800000F07DFC00231A460A21284600F02CF9A2
:10349000FF2854D000EB800101EBC00005EB400099
:1034A00090F84A130A0604D5E173B0F84C1361830F
:1034B00003E0A173B0F84C13218390F852130A066D
:1034C00004D5E173B0F85403608303E0A173B0F84E
:1034D00054032083A17B2846FFF71AFF6073E17B2A
:1034E0002846FFF715FF2073208B95F81D13022641
:1034F0000091CDE9016095F81C33A27B617B2846E1
:1035000000F070FC608B95F81D130091CDE901600F
:1035100095F81C33E27B217B284600F063FC0020F9
:1035200000E00CE084F84C000246617B284600F085
:1035300026FC217B0022284600F021FC002738468B
:10354000FEBD70472DE9F0410546D0F8780301270C
:103550000026C4694FF0040894F84C0005284AD2AC
:10356000DFE800F00305163B4200002743E021227C
:10357000A16C2A7420226A746E82AE8207222846C9
:10358000EA8200F062F848B9022084F84C0032E088
:1035900004F140012846FDF723F820B101282AD084
:1035A00084F84C8027E084F84C60A06C94F84410B8
:1035B000027991421FD194F84610827991421AD132
:1035C00094F845104279914215D1216C00688142EE
:1035D00011D12846FFF7B5FF0DE02846FCF728FF7C
:1035E0002846FCF7E6FE06E00021284600F00FF82A
:1035F00008B984F84C603846BDE8F0817047002077
:103600007047704710B500F0E3FA002010BD8278D3
:10361000012A07D10222027401224274002242824E
:103620008182C2820022114600F00FB87FB51C468D
:10363000012501AE0023009586E80E002A462146AA
:1036400000F0BFFB04B0002070BD70B5044601253A
:1036500080782E46012802D002281ED10DE0A160FC
:10366000A28126760220A0700321C4F8D413002280
:10367000D4F8CC0301F03AFA0FE0204600F012F93A
:1036800005004FF0000004D0032D02D0022D03D01E
:1036900003E0A670207600E0A670284670BD7FB5D6
:1036A0001D4690F81D33089C03B100240123CDE989
:1036B0000031CDE9022400231A46294600F081FB9F
:1036C00004B0002070BD1FB500231446CDE90031C1
:1036D0000822CDE902231A46214600F072FB04B00D
:1036E000002010BDFDF7DCB870B50546002005F5DB
:1036F0004D7500BF00EB800404EBC00405EB4404EF
:10370000E67B0A348E4201D0FF2909D1A679964280
:1037100001D0FF2A04D1E4799C4206D0FF2B04D0CB
:10372000401CC0B20228E5D3FF2070BD0B2907D290
:1037300000EB8100B0F88013C1F30E01C0F88013D4
:103740000020704730B48578029C012D0FD141F0E4
:10375000800101740621417403214282B1EB122FD2
:1037600002D140F2094100E000218182C482224658
:1037700030BC1946FFF769BF0A8803781A440A80EB
:10378000017808447047F8B50E4600F11C05009119
:1037900004462B464FF400720021FFF7D3FF0700C9
:1037A00005D13246294604F54D7000F025FB384618
:1037B000F8BD38B50D460091044600F58E734FF400
:1037C00080720021FFF7BEFF002839D194F81C1148
:1037D00084F8221394F81D1184F82313B4F81E11F1
:1037E000A4F8241394F8201184F8261394F82111D6
:1037F00084F8271394F8221184F8281394F82311DD
:1038000084F82913082D1BD9B4F82411A4F82A131D
:10381000B4F82611A4F82C13B4F82811A4F82E1328
:1038200094F82A1184F8301394F82B1184F831138A
:1038300094F82C1184F8321394F82D1184F8331372
:1038400038BDF8B51C461646009341F4407200F5A9
:103850008E731D460021FFF775FF002814D169788B
:10386000032911D129788A1EA24200D814460021CA
:10387000A2B2AD1C04E06B5C891C06F8013B89B266
:103880009142F8D300213170F8BD01004FF00000E3
:1038900004D0012901D0022901D002207047012063
:1038A000704700002DE9F84F04460126007E0B27E3
:1038B0000325B0464FF009094FF0070A4FF00D0BF2
:1038C0000C2819D2DFE800F0BA060E303C465366E9
:1038D00071808DA4627904F110012046FFF7F3FE98
:1038E00002202BE06179204600F0DFF9012804D0A6
:1038F000042817D0022815D0A0E0207CE18A00F02F
:10390000800031B1802801D1257678E0052020762D
:1039100075E0802803D100BF84F818906FE084F828
:1039200018A06CE027766AE0D4F8BC03E081237924
:10393000A2892046A168FFF779FE042020767DE069
:103940002179204600F0B1F90128E5D0052850D1B1
:10395000032654E0CDF800806379A2892046A1684F
:10396000FFF79DFED4F8BC03E0810620E6E761790D
:10397000204600F09AF90128D1D0052804D0022869
:10398000C4D0042803D059E00C202076E0E7277645
:10399000022634E00022237911462046FFF746FE36
:1039A000D4F8BC03E0810820C8E72179204600F064
:1039B0007CF9012804D00428B4D00528C8D03DE003
:1039C00084F818B000261AE0CDF800800022637950
:1039D00011462046FFF763FED4F8BC03E0810A20BD
:1039E000ACE76179204600F060F9012804D0022894
:1039F00092D0042896D021E0002684F818B0C4F8AC
:103A0000D45329460022D4F8CC0301F06FF815E016
:103A1000607E401CC0B26076022807D8204600F0C5
:103A2000C7F984F8188084F8028007E0D4F8C82326
:103A30000621204690470020607602263046BDE8E9
:103A4000F88F2DE9FE4304460126407805254FF006
:103A50000008374604F58E72082847D2DFE800F0E8
:103A600004171F474F57626E08212046FFF7A1FE3B
:103A7000002876D194F82903A071677094F81D137B
:103A80000091CDE90180454694F81C331CE01221D9
:103A90002046FFF78EFE002863D102202DE0012191
:103AA000204600F02CFB00285BD10220FFF71AFE15
:103AB00084F81C7303206070A07994F81D13CDE97D
:103AC00000183B464546029021798022204600F0AE
:103AD00089F9A07994F81D130091CDE9015094F86B
:103AE0001C3361790022204600F07CF939E009217D
:103AF0002046FFF748FE00BB0420607031E0B4F8B8
:103B000036132046FFF73FFEB8B9657029E094F8F8
:103B10003013062721B1FF232046FFF792FE60B93C
:103B2000677016E094F8311307270029F8D0FF23B7
:103B30002046FFF786FE00B9677012E094F8321352
:103B400031B1FF232046FFF77CFE50B9002608E084
:103B50000026C4F8D45329460022D4F8CC0300F040
:103B6000C5FF3046BDE8FE8330B58BB00D4604007E
:103B700029D084F8C0230020C4F87803C4F87C035B
:103B80002046FCF79FFC0DB1C4F8C8530F4B07AD9E
:103B90000FCB85E80F00002107A800F049FF0B4973
:103BA000C4F8CC031C2210316846FCF7ACFB21465C
:103BB000684600F0C9FFC4F8D003204600F088F83A
:103BC00000200BB030BD0220FBE70000D85E0008EB
:103BD00010B5D0F8C403FCF7FAFFBDE81040FFF7BA
:103BE00054BE70B504460078012520B194F81F0337
:103BF000012809D00AE084F81E53D4F8C8232AB15A
:103C000004212046904701E002202070C4F8D453DC
:103C100029460022D4F8CC0300F068FF002070BDD4
:103C200010B5044600F0C4F821792046FFF77EFD68
:103C300061792046FFF77AFD002084F81E03D4F84E
:103C4000C82312B1052120469047204600F0A7F86E
:103C5000032020700121C4F8D4130022D4F8CC032F
:103C600000F044FF002010BD10B590F8C00310B95B
:103C70000846FEF783FFC820FCF712FE002010BDA7
:103C8000D0F8C403FCF79DBF10B50124D0F8C403DD
:103C9000FCF78DFF20B1012805D0022803D101E0F7
:103CA000002400E00224204610BDD0F8C403FCF735
:103CB00081BFD0F8BC13491CC0F8BC1301780B2994
:103CC00005D1D0F87813002901D0896908477047D9
:103CD00010B5044690F8C003F0B91048104902220C
:103CE000C0F8C042C4F8C40301600C218160012106
:103CF000C16000210161C0E906210162C162416326
:103D0000FDF795F808B1FCF702FC0448FCF74CFFFE
:103D10000146204600F030F8002010BD2C0900209C
:103D20000000044010B50121C0F8D413D0F8CC0332
:103D3000002200F0DBFE002010BDFEB508AF97E8C2
:103D400070008DE87000D0F8C403FCF752FFBDE8A6
:103D5000FE40FFF79ABD002180F81F137047012134
:103D600080F81F13704710B5D0F8C403FDF7E4F8CE
:103D7000BDE81040FFF789BDC0F8BC137047D0F80C
:103D8000C40301EB810100EBC10090F83B1011B1BD
:103D900080F8502001E080F851200020704710B5D5
:103DA000D0F8C403FDF7CFF8BDE81040FFF76DBDB4
:103DB00010B5D0F8C403FDF7DCF8BDE81040FFF7FC
:103DC00064BD2DE9FF410DF1280898E8F0008DE869
:103DD000F000D0F8C403FCF749FF04B0BDE8F0419F
:103DE000FFF753BDFEB508AF97E870008DE870008F
:103DF000FFF7A3FF0020FEBD2DE9F84105460B7833
:103E00002B704B786B704B886B800B792B714B79D7
:103E10006B718B79AB71CB790846EB710027097A0E
:103E20002972092A54D90921ADF800104BE06946DE
:103E3000FFF7A2FC4178042943D107EB870101EB8E
:103E4000C70105EB4108017888F80A10417888F825
:103E50000B10817888F80C10C17888F80D10017962
:103E600088F80E10417988F80F10817988F81010C1
:103E7000C17908F10A0488F81110017A217200262C
:103E800015E06946FFF778FC417805290FD108EB6A
:103E9000C60102780A7542784A7582788A75C278B6
:103EA000CA7582880A838279761C8A76F6B221796D
:103EB000B14204D96A88BDF800108A42E1D87F1C5B
:103EC000FFB2022F04D26988BDF800209142AED81B
:103ED000BDE8F8812DE9FE43022204468DF800205A
:103EE00094F81F13002031B9237823B12378032BD2
:103EF00001D00323237023780027012505264FF0E6
:103F000008094FF00D080C2B1CD2DFE803F006184F
:103F10001CC0CB4AAA59616B79B994F81E030028DA
:103F200010D02570C820FFF7DDFB2046FFF71BFFF0
:103F3000C4F8D45300222946D4F8CC038EE00129DA
:103F400000D12270AEE06420FFF7CCFB2046FFF7E3
:103F50009BFE84F81D03267000212046FFF7D8F948
:103F6000607180212046FFF7D3F920710146A079C6
:103F700094F81D230092CDE9017094F81C3380223F
:103F80002046FFF72FFFA07994F81D130091CDE98B
:103F9000017094F81C33617900222046FFF722FF5C
:103FA0001EE02046FFF74DFD00287BD184F82073EA
:103FB00094F83303012801D007205FE048465DE014
:103FC000D4F8C823EAB301212046904748463EE092
:103FD00094F83913204600F0A0F808B909202070A1
:103FE000294636E094F83B034FF00A06800605D5D3
:103FF0000121204600F09FF80028F1D12670EFE75C
:10400000D4F87C1309B3C4F8787394F8432300BF41
:1040100004EB8001D1F874130B79934201D1C4F8F9
:104020007813401C10F0FF00F2D0D4F8780368B188
:1040300081682046884748B9062020700321204621
:1040400000E02FE0D4F8C823904701E040462070FC
:104050003146C4F8D4130022D4F8CC0300F046FD56
:1040600020E0D4F878030028F0D001692046884782
:104070008DF800009DF80000A0B90B20207011E021
:10408000D4F8780370B14169204688470AE0204699
:10409000FCF718FAD4F8780320B1C16820468847A5
:1040A000C4F878730020BDE8FE830EB504464FF0D7
:1040B000FF352A466846D4F8CC1300F0CDFC0098B2
:1040C0001028F6D12046FFF705FFF2E7002211B1D4
:1040D000D0F87C3313B10222104670470123C0F898
:1040E0007C33C0F87413F7E70246002092F83833A7
:1040F0008B4202D982F820137047022070478278E1
:10410000012A06D10022027405234374418282826F
:10411000C28200221146FFF798BA8278012A06D19E
:10412000002202740923437441828282C2820022E7
:104130001146FFF78ABA8278012A06D1002202745A
:104140000323437441828282C28200221146FFF718
:104150007CBA10B50446FFF722FE01212046FFF786
:1041600083FD002010BD000001290AD00548022966
:1041700006D0042903D0052903D1032100E0012141
:10418000017070470C00002070B5044606990A9E25
:10419000049D0D98012916D0E06840F04000E060D1
:1041A000204600F02BF8A16B1EB321F48031A163EF
:1041B000012D07D1A16841F00601A160A16841F07D
:1041C0002001A16070BDA16B21F48031A163E16881
:1041D000094A1140E160E16821F44011E1600128E1
:1041E00003D1E06840F48010E060204600F006F85B
:1041F000DEE741F48031DAE7BFFFBDFF01220C4961
:1042000002E0521C8A420BD80369002BF9DA0269DA
:1042100042F001020261012204E0521C8A4201D9EB
:10422000032070470369DB07F7D1002070470000C7
:10423000400D0300816821F001018160002070477A
:1042400000EB4110064AC0F81025D0F8001521F007
:10425000804141F00041C0F8001500207047000087
:104260000000088008B5D0F8402422F02E02009209
:10427000D20405D4012909D1009941F4805103E009
:1042800021B9009921F48051C0F84014002008BDE4
:10429000816841F0010181600020704700211022F7
:1042A0000261054A491C914201D903207047036904
:1042B000DB06F7D400207047400D030000222023C6
:1042C00043EA811101610549521C8A4201D9032048
:1042D000704703699B06F7D400207047400D030028
:1042E000D0F8080480B2704708B5D0F840040090B8
:1042F000C0F3414008BD406900F00100704700EB89
:104300004111D1F800254FF47A73C2F381426AB1AA
:10431000022A0BD0D1F8002542F08042C1F80025D6
:10432000D0F8100410F47F0F2ED009E0D1F800254A
:1043300042F08042C1F80025C06A10F47F0F07D018
:10434000D1F8000540F00040C1F80005002070479A
:10435000D1F8000520F00040C1F80005D1F80005B3
:1043600040F00040C1F80005D1F8000520F40040FD
:10437000C1F80005012002E0401C9842E6D8D1F8BF
:104380000025002AF8DBE1E7D1F8000520F0004025
:10439000C1F80005D1F8000540F00040C1F8000563
:1043A000D1F8000520F40040C1F80005012002E02A
:1043B000401C9842CAD8D1F80025002AF8DBC5E78E
:1043C0002DE9F0430026DDE9078500EB4114771E57
:1043D000DDF82490C4F80875CDB1012D32D0022D3E
:1043E00015D0032D27D00126D0F8187401F00F0C3A
:1043F000012101FA0CF10F43C0F81874816941F0F2
:104400000071816110062AD54FF4004028E040F287
:104410009D47C4F80C75170605D500BFD4F80C7578
:1044200047F4807718E0C76BFF05DDD5D4F80C752D
:1044300047F0600710E040F29D67C4F80C7517065E
:10444000ECD4D1E740F22527C4F80C751706CBD57C
:10445000D4F80C7547F4C077C4F80C75C4E7002095
:10446000B8F1020F18D000214FF0FE5707EA83532E
:104470004FF4F04707EAC22213434FF4402202EA06
:1044800085421343C9F30A02134303430B43C4F8A1
:104490000035032D03D008E04FF40031E4E7D4F8F1
:1044A000000540F00050C4F800053046BDE8F08338
:1044B000D0F8140480B27047F8B54C78C56B4FF44F
:1044C0008073ED054FF0000715D50D799DB912B138
:1044D000012A07D00FE04D79012D0CD12146FFF7BD
:1044E000AFFE8CE000EB4415D5F80C6526F06006B5
:1044F000C5F80C654F710E695EB10D892E44761EAC
:10450000B6FBF5F6B6B29E4204D91E462B020B61ED
:1045100000E00126CB78CBB30B897343C1F8103090
:104520006FF06045C3F3120305EAC6452B438D7A4D
:104530004FF0C04606EA45752B4300EB4414054690
:10454000C4F8103512B1CB68C4F81435D5F8083466
:10455000D4F8005543F3000325F00055C4F8005586
:10456000D4F800555B1C45EA4373C4F80035D4F811
:104570000055244B1D601D6825F080451D60CD78D9
:10458000002D1D6805D045F4004504E0FFE70B69E8
:10459000C6E725F400451D601D6845F000451D6017
:1045A0001B68C4F8003552BBCA7842BB0A6932B3F3
:1045B000CB7933B1012B0FD0022B02D0032B17D1B3
:1045C0000AE0D21CC36AC2F38F029BB293420FD29D
:1045D000826942F020020AE0D21CD0F81034C2F303
:1045E0008F029BB2934203D2826942F08062826161
:1045F00000970A8A93B24A78C96800F00EF9002041
:10460000F8BD0000180000202DE9F0410025DDF87C
:10461000188017460446C0F8005E806B40F4001016
:10462000A063A06B20F40020A063A06B20F4802086
:10463000A063E06BC00501D5032B04D0D4F80004BF
:1046400020F0040103E0D4F8000440F00401204607
:10465000C4F800141021FFF731FE2046FFF71EFEBC
:104660000020461E07E000BF04EB4011C1F80865BA
:10467000C1F80C55401C8742F6D801212046FFF7AF
:10468000F1FDC820FCF70CF9A5616661E06BC0057F
:1046900006D54FF4007060620C48A0620C4804E03C
:1046A000802060620B48A0620B48C4F80001B8F19A
:1046B000000F03D1A06940F01000A061A069074974
:1046C0000843A0610020BDE8F08100000002000165
:1046D0000003E00080006000E0004000080020A32C
:1046E000D0F8002422F00302C0F80024D0F80024FF
:1046F00001F003031A43C0F80024012902D0022963
:1047000003D006E04BF6803101E041F27071C0F851
:104710000414002070474169806908407047D21C2A
:1047200010B59308002200F5805002E00468521C86
:1047300010C19A42FAD3084610BD38B50446D0F8E5
:10474000400420F02E00009040F48070C4F8400433
:10475000642004F58864FCF7A3F8009820F48070C6
:1047600020600A20FCF79CF8002038BD10B5C26814
:1047700022F0C042C260012902D029B1012010BD3F
:10478000C16841F0005102E0C16841F08041C16060
:104790003220FCF785F8002010BD000030B504463B
:1047A0008068002520F00100A06010212046FFF75E
:1047B00085FD2046FFF772FD5FF0000004EB40111D
:1047C000D1F8002522F0802242F08042C1F8002575
:1047D000401C0F28F2D900204FF47A7304EB4011EB
:1047E000D1F8002522F4004242F04042C1F80025F1
:1047F0006D1C9D4203D8D1F80025002AF8DB401C2F
:104800000F28EBD94FF0FF30C4F814046061A068A2
:1048100040F00100A060002030BD10B5029C64B9DA
:10482000DB1C9C0800EB0230002300F5805002E006
:1048300004C902605B1CA342FAD3002010BDFEE74E
:104840000907090E002804DB00F1E02080F80014BD
:10485000704700F00F0000F1E02080F8141D704751
:1048600002E008C8121F08C1002AFAD17047704739
:10487000002001E001C1121F002AFBD17047000097
:1048800010B5002821D0114B0022001F196803E049
:10489000814203D80A4649680029F9D152B1136808
:1048A000841A9C4204D1006818441060104602E04B
:1048B000506000E0186039B102680B1A934203D1CE
:1048C0000B681A4402604968416010BDAC000020CA
:1048D000EFF30580002800D00120704788B0FCF776
:1048E000AFFCFEF77FFBFEF783F9264924480860FA
:1048F0000846FBF780FE254823490024C0E9001440
:104900008460C4608462C46204634463FBF77BFF19
:1049100001211E48FBF796FEFEF73AF9FEF766FA0C
:10492000FEF786FAFEF7D6FAFEF7F0FA19481849AC
:1049300001604FF4E131C0E901140C21C460C0E909
:1049400004418461C461FDF72CFD1C2212496846B4
:10495000FBF7D9FC0021684600F0F6F80949091F69
:10496000086000F060F80D4D4FF400544FF4FA76F3
:1049700021462846FCF7FEF83046FBF791FFF7E7A3
:10498000003002400400002000B00240B4000020CB
:104990000010014088020020A45E000800180240B8
:1049A00001460020842900D0C81C7047F0B50B30A8
:1049B000154D20F007010024144A0FE003688B42D4
:1049C0000BD38B4205D95E1A43184768C3E90067C9
:1049D00000E04368136002C004E0021D1068002874
:1049E000ECD12046002802D1286808B10020F0BD93
:1049F000064A07481060074A121A22F00702C0E967
:104A0000002401202860D7E7B0000020AC0000207F
:104A1000248D0020208F002010B500B9012000F067
:104A200079FC002010BD10B500F0C0FC002010BDC6
:104A300038B5D0E9011204683AB1C3682BB100203F
:104A40000090204600F0D2FD38BD2046BDE8384039
:104A5000002200F0A7BD00002DE9FF410D004FF03E
:104A60000006CDE9016507461ED000240396501CC0
:104A70001FD002B11446FFF72BFF69464FF0100814
:104A8000E8B103AA2846091D00F0D2FF012813D07F
:104A900000960398E8B114494FF080500860BFF3C6
:104AA0004F8FBFF36F8F14E0802031462A4600906D
:104AB00011E04FF0FF34DEE7CDF80080E9E7224651
:104AC0002846091D00F018FF012808D054B14020E5
:104AD00000909DE8070087E80700BDE8FF81CDF85A
:104AE0000080F6E70020F3E704ED00E037B5054667
:104AF00082B000200090140000D10124FFF7E8FEEE
:104B00004FF0000388B16A4603A9284600F096FEDC
:104B1000012811D1009890B10A494FF080500860E7
:104B2000BFF34F8FBFF36F8F09E0224603A92846DA
:104B300000F0D4FD012802D0FF2005B030BD0020D8
:104B4000FBE7000004ED00E07FB50D460446416937
:104B5000B0F9080081B1A16971B1FFF721FFD4E973
:104B600005128DE80700D4E900102B46226901F0F8
:104B700014F8039004B070BDFFF712FF03A9CDE94C
:104B80000001208A2B4682B2D4E9001000F0D8FF41
:104B9000012801D00020EDE70398EBE72DE9F04173
:104BA000184C0F46054666692068001D00F0C0FAE3
:104BB00038B9206890F82C1001208840A169814301
:104BC000A161681C07D137B12168BDE8F0410E48EA
:104BD000091D00F0F4BA20683544B54245602168EB
:104BE00005D2A068BDE8F041091D00F0D0BA6068A8
:104BF000091D00F0CCFA206B854200D22563BDE888
:104C0000F08100002C0000200C0D00202DE9F04167
:104C1000054600F0E1FA2E4C2069401C2061206816
:104C20002C4F10B1E06940B32DE0256020690128C8
:104C300029D1002606EB860007EB800000F099FAE8
:104C4000761C072EF6D323488C3000F092FA2148C8
:104C5000A03000F08EFA1F48B43000F08AFA1D48E8
:104C6000C83000F086FA1B48DC3000F082FA1948A0
:104C70008C3060601430A06005E02068E96AC06A8A
:104C8000884200D82560E06A401CE062E96A0120A1
:104C9000A26988401043A06101EB810007EB80000E
:104CA000291D00F08CFA00F0B7FAE06900280CD05A
:104CB0002068E96AC06A884207D207494FF08050ED
:104CC0000860BFF34F8FBFF36F8FBDE8F081000026
:104CD0002C000020300C002004ED00E030B4026C09
:104CE0000B46002A0BD0C1681144C1604468A14240
:104CF00001D30168C16030BC1846FBF704BB30BC6F
:104D000070472DE9F041856B174604460026026C7A
:104D100082B1C7B1E068FBF7F6FAE168206C091AC6
:104D2000E1602268914202D26168081AE060022FB5
:104D300016D017E02068A8B9606800F0CBFF0646DF
:104D4000002060600EE0A068FBF7DDFA216CA0682F
:104D50000844A0606168884204D32068A06001E034
:104D600005B16D1E6D1CA5633046BDE8F08110B520
:104D7000044690F8550058B101280CD002280FD0F5
:104D8000502080F31188BFF34F8FBFF36F8FFEE782
:104D9000206B00F055FA2046BDE8104000F050BAF4
:104DA00010BD000010484FF40041420706D0C01D5E
:104DB0000D4920F00700411AC1F500410B4A0023BC
:104DC0000144C2E900030839103A21F007011160DB
:104DD0004B600B600B1AC0E9001393604FF000406A
:104DE0005360D06070470000200D00207800002044
:104DF000154E164CA6F1C8074FF08058DFF85090BA
:104E000012E000BF00F0E8F9F068C568281D00F066
:104E10008FF92069401E2061E068401EE06000F0CC
:104E2000FBF92846FFF7A3FFE0680028EAD13868BD
:104E3000012805D9C9F80080BFF34F8FBFF36F8FEA
:104E400000F094F9F0E70000F80C00202C0000209E
:104E500004ED00E00346009829B10260C0E90F317B
:104E6000012100F0F7BB0060F8E72DE9F0470E469E
:104E7000DDE909841746824691009946089DA522DE
:104E8000206BFBF752FA6FF00301206B01EB8701F7
:104E9000084420F00707780707D0502080F31188D6
:104EA000BFF34F8FBFF36F8FFEE72218315C82F89C
:104EB0003410315C11B1401C1028F6D3002684F860
:104EC0004360072D00D30625E562C4E91156201D75
:104ED00000F05AF904F1180000F056F92461C5F108
:104EE00007006462A061E664266584F854604A465F
:104EF0005146384600F006F92060B8F1000F01D0A5
:104F0000C8F80040BDE8F08730B5114900E011460F
:104F10000A688242FBD34B685C18844203D1406824
:104F200018444860084643681C18944209D1084C4C
:104F3000103C2468A24209D052681A4442600A68B0
:104F400012680260814200D0086030BD0460F9E759
:104F50007800002010B5044600F03EF9A06B28B19F
:104F60005FF0000400F058F9204610BD0124F9E775
:104F700006484168096829B14168C968C968496833
:104F8000016370474FF0FF31FAE700002C0000206A
:104F900008484068401C4FF0500080F3118804D04E
:104FA000BFF34F8FBFF36F8FFEE7BFF34F8FBFF39A
:104FB0006F8FFEE7800000202DE9F041044600F0ED
:104FC0000BF994F9455004F1240609E0606A48B1F0
:104FD000304600F0CBFE08B100F0CAF96D1E6DB28C
:104FE000002DF3DC4FF0FF3684F8456000F014F933
:104FF00000F0F2F894F9445004F1100709E0206938
:1050000048B1384600F0B2FE08B100F0B1F96D1EAB
:105010006DB2002DF3DC84F84460BDE8F04100F08F
:10502000FBB800002DE9F0410546002700F0F4F937
:10503000334E306808B9FFF7B5FEF068054216D167
:10504000ADB1083568070ED005F00700C0F10800C3
:105050000544680707D0502080F31188BFF34F8FB5
:10506000BFF36F8FFEE715B17068854202D900F07B
:10507000B7FE36E02248103001460C6801E02046B9
:105080000C466168A94202D221680029F7D1316833
:105090008C42ECD007682168016060680837411BCA
:1050A00010290ED96019420707D0502080F31188CB
:1050B000BFF34F8FBFF36F8FFEE741606560FFF76F
:1050C00023FF61687068401A7060B268904200D235
:1050D000B060F06801430020C4E9000100F080FEE8
:1050E0000FB900F044F8780707D0502080F31188FA
:1050F000BFF34F8FBFF36F8FFEE73846BDE8F081F7
:105100006800002010B5031F4FF080741C601B1F47
:1051100021F001011960191F044B0B6014390A605A
:10512000091F6FF0020244380A6010BD914F000859
:10513000D0E9013201699A60D0E901235A604A68D6
:10514000824201D182684A60002202610868401EE2
:105150000860086870470000034B036003F15800C3
:105160000860802010607047FC0200207047704784
:10517000704700F108014FF0FF32C0E90112C16031
:10518000016100210160704700210161704730B565
:105190000B685A1C02D000F1080202E0026904E028
:1051A0002246546825689D42FAD953684B6099603D
:1051B0008A60516008610168491C016030BD426825
:1051C0004A6093688B6093685960916008610168D8
:1051D000491C016070470000502080F31188BFF324
:1051E0004F8FBFF36F8F0A494868401C4860012801
:1051F0000CD10848006810F0FF0F07D0502080F352
:105200001188BFF34F8FBFF36F8FFEE77047000029
:105210008000002004ED00E00849486828B1401EE5
:10522000486001D180F311887047502080F31188C5
:10523000BFF34F8FBFF36F8FFEE7000080000020A9
:1052400070B5002827D0144DA0F108046168E86803
:10525000014207D1502080F31188BFF34F8FBFF375
:105260006F8FFEE722683AB1502080F31188BFF3B8
:105270004F8FBFF36F8FFEE78143616000F0CCF882
:1052800060686968084468602046FFF73DFEBDE835
:10529000704000F0A5BD70BD680000204FF0E02018
:1052A00000210161816105494FF47A720968B1FBFF
:1052B000F2F1491E41610721016170472800002079
:1052C00010B5FAF7D9FF114910280ED300F1E020EC
:1052D00090F8F0030A78904207D2502080F31188AA
:1052E000BFF34F8FBFF36F8FFEE7094800688968EF
:1052F00000F4E060884207D9502080F31188BFF3A2
:105300004F8FBFF36F8FFEE710BD000080000020BD
:105310000CED00E010B5020014D00F48806B38B1DE
:10532000502080F31188BFF34F8FBFF36F8FFEE7DC
:1053300000F072F800211046FFF730FC00F050FD3D
:10534000002807D105494FF080500860BFF34F8F08
:10535000BFF36F8F10BD00002C00002004ED00E0B3
:1053600002498A6A02604969416070472C00002046
:1053700001490120486270472C00002010B50C46FE
:1053800050B1094909681831FFF701FF2046BDE80F
:1053900010400121FFF702BC502080F31188BFF3B9
:1053A0004F8FBFF36F8FFEE72C00002010B586B043
:1053B0000024039405AA04A903A80494FFF7CCFED3
:1053C000DDE903010094CDE9011000230EA110488E
:1053D000059A00F0E2FB0F490028486311D05020E5
:1053E00080F31188BFF34F8FBFF36F8F4FF0FF3003
:1053F00008630120C8614C6106B0BDE8104000F0B0
:1054000057B806B010BD000049444C4500000000EC
:10541000F14D00082C0000200248816B491C81637B
:10542000704700002C00002010B51F4CA06B10B17D
:105430000120606210BD0020606220684FF0A5313D
:10544000006B02688A4208D142688A4205D18268AC
:105450008A4202D1C068884204D021682068343171
:10546000FFF786FEA0691149B0FA80F0C0F11F0075
:1054700000EB800051F820206AB101EB800000F1C0
:105480000802416849684160914201D14968416020
:10549000C868206010BD502080F31188BFF34F8F83
:1054A000BFF36F8FFEE700002C000020300C0020BF
:1054B0001CB537480168374A914207D1502080F324
:1054C0001188BFF34F8FBFF36F8FFEE7006831493C
:1054D000491E884207D1502080F31188BFF34F8FB7
:1054E000BFF36F8FFEE72C4908780190FF2008700A
:1054F00008788DF800009DF800009DF8002000F06D
:10550000F000904207D0502080F31188BFF34F8FF6
:10551000BFF36F8FFEE79DF80000204B00F05000B6
:1055200018700720986005E09DF8002052008DF863
:105530000020401E9DF800201206F5D49860032834
:1055400007D0502080F31188BFF34F8FBFF36F8FC8
:10555000FEE74FF440709860019808700C482030C6
:10556000016841F470010160016841F0704101601F
:10557000FFF794FE00205860FAF746FE08480168DD
:1055800041F040410160FAF72BFE00201CBD0000F5
:1055900000ED00E071C20F4100E400E08000002057
:1055A00034EF00E0F8B517460E46050014D0DEB122
:1055B00005FB06F04830FFF735FD04000AD0002057
:1055C00084F8460004F148023B46314628460094E0
:1055D000FFF740FC2046F8BD502080F31188BFF350
:1055E0004F8FBFF36F8FFEE70020E3E738B5049DD0
:1055F00018B153B1CAB181B120E0502080F31188B5
:10560000BFF34F8FBFF36F8FFEE7502080F31188F9
:10561000BFF34F8FBFF36F8FFEE7502080F31188E9
:10562000BFF34F8FBFF36F8FFEE739B1502080F388
:105630001188BFF34F8FBFF36F8FFEE748241C46DE
:10564000012384F846302B460094FFF703FC2046E4
:1056500038BD000070B50D46040025D0FFF7BCFD35
:10566000D4E90F20216802FB001161600021A163D1
:105670002168A1600A46D4E90F01401E00FB012108
:10568000E16021464FF0FF3001F8440F487004F10B
:1056900010008DB1FFF76DFD04F12400FFF769FDE7
:1056A000FFF7BAFD012070BD502080F31188BFF3D1
:1056B0004F8FBFF36F8FFEE721690029F0D000F014
:1056C00055FB0028ECD004494FF080500860BFF330
:1056D0004F8FBFF36F8FE3E704ED00E02DE9FF4745
:1056E00082B01D468A464FF00008040003D0BAF18C
:1056F000000F08D011E0502080F31188BFF34F8FC6
:10570000BFF36F8FFEE7206C38B1502080F3118813
:10571000BFF34F8FBFF36F8FFEE7022D0AD1E06B0F
:10572000012807D0502080F31188BFF34F8FBFF3BB
:105730006F8FFEE700F05CFA3F4F4FF000094FF02B
:10574000805648B9049838B1502080F31188BFF3CF
:105750004F8FBFF36F8FFEE7FFF73EFDA06BE16B4E
:10576000884207D3022D05D00498D0B1B8F1000FBC
:105770001AD01EE02A4651462046FFF7C2FA616A57
:1057800019B104F1240000F0F1FA20B13E60BFF33A
:105790004F8FBFF36F8FFFF73FFD012006B0BDE8CD
:1057A000F087FFF739FD22E06846FFF7D9FD4FF09B
:1057B0000108FFF731FDFFF72FFEFFF70DFD94F90C
:1057C0004400401C01D184F8449094F94500401CE9
:1057D00001D184F84590FFF71FFD04A9684600F049
:1057E00075F930B12046FFF7E7FB00F0F9FA002029
:1057F000D4E7FFF7F1FCA06BE16B884213D1FFF710
:105800000BFD04F110000499FFF7B8FD2046FFF7E7
:10581000D3FB00F0E5FA00289ED13E60BFF34F8F26
:10582000BFF36F8F98E7FFF7F7FC2046FFF7C4FB45
:1058300000F0D6FA90E7000004ED00E02DE9F04713
:105840001F4690468946040003D0B9F1000F08D0E6
:1058500011E0502080F31188BFF34F8FBFF36F8F9B
:10586000FEE7206C38B1502080F31188BFF34F8FD2
:10587000BFF36F8FFEE7022F0AD1E06B012807D03C
:10588000502080F31188BFF34F8FBFF36F8FFEE777
:10589000FFF716FD5020EFF3118680F31188BFF358
:1058A0004F8FBFF36F8FA06BE16B884206D3022F3F
:1058B00004D0002086F31188BDE8F08794F94550A4
:1058C0003A4649462046FFF71CFA681C04D06D1C76
:1058D00084F845500120EDE7606A0028FAD004F111
:1058E000240000F043FA0028F4D0B8F1000FF1D002
:1058F0000121C8F80010EDE72DE9F747002683B035
:105900008A46040003D0BAF1000F08D011E05020FD
:1059100080F31188BFF34F8FBFF36F8FFEE7206CCA
:1059200038B1502080F31188BFF34F8FBFF36F8FD2
:10593000FEE700F05DF9DFF8F4804FF000094FF06A
:10594000805748B9059838B1502080F31188BFF3CB
:105950004F8FBFF36F8FFEE7FFF73EFCA56BC5B11E
:1059600051462046FFF7BAF96D1EA563206950B174
:1059700004F1100000F0FAF928B1C8F80070BFF384
:105980004F8FBFF36F8FFFF747FC012006B0BDE8D4
:10599000F087059808B11EB106E0FFF73DFC27E04F
:1059A0006846FFF7DDFC0126FFF736FCFFF734FD04
:1059B000FFF712FC94F94400401C01D184F8449094
:1059C00094F94500401C01D184F84590FFF724FC70
:1059D00005A9684600F07AF8002820460AD0FFF7AB
:1059E000EBFA00F0FDF92046FFF7B4FA0028B3D037
:1059F0000020CBE7FFF7AEFA90B104F1240005993F
:105A0000FFF7BCFC2046FFF7D7FA00F0E9F90028C1
:105A1000A2D1C8F80070BFF34F8FBFF36F8F9BE721
:105A20002046FFF7C9FA00F0DBF995E704ED00E046
:105A30002DE9F04790468946040003D0B9F1000FE4
:105A400008D011E0502080F31188BFF34F8FBFF3CF
:105A50006F8FFEE7206C38B1502080F31188BFF3C0
:105A60004F8FBFF36F8FFEE7FFF72AFC5020EFF355
:105A7000118680F31188BFF34F8FBFF36F8FA76B31
:105A8000F7B194F9445049462046FFF727F97F1EA5
:105A9000A763681C04D06D1C84F84450012010E0FA
:105AA00020690028FAD004F1100000F05FF9002806
:105AB000F4D0B8F1000FF1D00121C8F80010EDE7E3
:105AC000002086F31188BDE8F08700002DE9F04141
:105AD0000C46050011D0C4B1FFF77EFB174B5A6985
